{
  "transactions": [
    {
      "hash": "0x3fe6ce7db49f454f121f522766cd02e99dd0e18a2d5130674a1f8f3931dad32e",
      "transactionType": "CALL",
      "contractName": null,
      "contractAddress": "0x76709d72e0d80cc26c807134940b59bc36c83543",
      "function": "create(uint256,uint256,(string,string[],uint32),(string,string,string,(uint256,uint256),uint32),address)",
      "arguments": [
        "5",
        "6",
        "(Optimism Funding Round XYZ, [Project A, Project B, Project C, Project E, Project F, Project G, Project H, Project I, Project J], 1739487600)",
        "(Superchain transaction fees, 2025-02-15, 2025-06-15, (0, 10000000), 1750024800)",
        "0x818bA315d2E28372cbe01f507aCEC6fd72E41181"
      ],
      "transaction": {
        "from": "0x6fa32dcac55adb31b3a2d87a2af653c46c68b9eb",
        "to": "0x76709d72e0d80cc26c807134940b59bc36c83543",
        "gas": "0xd48805",
        "value": "0x0",
        "input": "0x72ec05e60000000000000000000000000000000000000000000000000000000000000005000000000000000000000000000000000000000000000000000000000000000600000000000000000000000000000000000000000000000000000000000000a000000000000000000000000000000000000000000000000000000000000004c0000000000000000000000000818ba315d2e28372cbe01f507acec6fd72e41181000000000000000000000000000000000000000000000000000000000000006000000000000000000000000000000000000000000000000000000000000000a00000000000000000000000000000000000000000000000000000000067ae7970000000000000000000000000000000000000000000000000000000000000001a4f7074696d69736d2046756e64696e6720526f756e642058595a00000000000000000000000000000000000000000000000000000000000000000000000000090000000000000000000000000000000000000000000000000000000000000120000000000000000000000000000000000000000000000000000000000000016000000000000000000000000000000000000000000000000000000000000001a000000000000000000000000000000000000000000000000000000000000001e00000000000000000000000000000000000000000000000000000000000000220000000000000000000000000000000000000000000000000000000000000026000000000000000000000000000000000000000000000000000000000000002a000000000000000000000000000000000000000000000000000000000000002e00000000000000000000000000000000000000000000000000000000000000320000000000000000000000000000000000000000000000000000000000000000950726f6a65637420410000000000000000000000000000000000000000000000000000000000000000000000000000000000000000000000000000000000000950726f6a65637420420000000000000000000000000000000000000000000000000000000000000000000000000000000000000000000000000000000000000950726f6a65637420430000000000000000000000000000000000000000000000000000000000000000000000000000000000000000000000000000000000000950726f6a65637420450000000000000000000000000000000000000000000000000000000000000000000000000000000000000000000000000000000000000950726f6a65637420460000000000000000000000000000000000000000000000000000000000000000000000000000000000000000000000000000000000000950726f6a65637420470000000000000000000000000000000000000000000000000000000000000000000000000000000000000000000000000000000000000950726f6a65637420480000000000000000000000000000000000000000000000000000000000000000000000000000000000000000000000000000000000000950726f6a65637420490000000000000000000000000000000000000000000000000000000000000000000000000000000000000000000000000000000000000950726f6a656374204a000000000000000000000000000000000000000000000000000000000000000000000000000000000000000000000000000000000000c0000000000000000000000000000000000000000000000000000000000000010000000000000000000000000000000000000000000000000000000000000001400000000000000000000000000000000000000000000000000000000000000000000000000000000000000000000000000000000000000000000000000098968000000000000000000000000000000000000000000000000000000000684f4260000000000000000000000000000000000000000000000000000000000000001b5375706572636861696e207472616e73616374696f6e20666565730000000000000000000000000000000000000000000000000000000000000000000000000a323032352d30322d313500000000000000000000000000000000000000000000000000000000000000000000000000000000000000000000000000000000000a323032352d30362d313500000000000000000000000000000000000000000000",
        "nonce": "0x1a",
        "chainId": "0x515"
      },
      "additionalContracts": [
        {
          "transactionType": "CREATE",
          "address": "0x070d726db537627d81045969ff2051adf0c8c3e0",
          "initCode": "0x610120346100d757601f6105c538819003918201601f19168301916001600160401b038311848410176100db5780849260a0946040528339810103126100d7578051906001600160a01b0380831683036100d757602082015190811681036100d757604082015190608060608401519301519360805260a05260e05260c0526101009081526040516104d591826100f0833960805182818161013101526101f0015260a05182818160ee01526102aa015260c05182818160b701526101ba015260e0518281816079015261022b015251816101770152f35b5f80fd5b634e487b7160e01b5f52604160045260245ffdfe60806040818152600480361015610014575f80fd5b5f92833560e01c9182632810e1d61461019a57505080632ddc7de7146101605780633d9f31631461011d5780635bd9e299146100da578063b06a5c52146100a05763d300cb3114610063575f80fd5b3461009c578160031936011261009c57602090517f00000000000000000000000000000000000000000000000000000000000000008152f35b5080fd5b503461009c578160031936011261009c57602090517f00000000000000000000000000000000000000000000000000000000000000008152f35b503461009c578160031936011261009c57517f00000000000000000000000000000000000000000000000000000000000000006001600160a01b03168152602090f35b503461009c578160031936011261009c57517f00000000000000000000000000000000000000000000000000000000000000006001600160a01b03168152602090f35b503461009c578160031936011261009c57602090517f00000000000000000000000000000000000000000000000000000000000000008152f35b909291503461044d578360031936011261044d57638a4599c760e01b83527f0000000000000000000000000000000000000000000000000000000000000000818401819052602491906020906001600160a01b037f00000000000000000000000000000000000000000000000000000000000000008116919083888781865afa978815610443578998610414575b507f000000000000000000000000000000000000000000000000000000000000000061025381610487565b9861026089519a8b610451565b818a52878661026e84610487565b8c82019790601f19013689378b5192838092637cadacdd60e11b8252868d8301525afa90811561040a578c916103d0575b5015610375575b50507f00000000000000000000000000000000000000000000000000000000000000001692833b15610371579188939197928751988994633124a62b60e21b8652604486019188870152898987015251809152606485019291865b82811061035757505050508383809203925af1801561034d57610322578480f35b67ffffffffffffffff841161033c575050525f8080808480f35b634e487b7160e01b85526041905283fd5b83513d87823e3d90fd5b835185528c97508b96509381019392810192600101610301565b8880fd5b8a5b82811061038457506102a6565b8a518110156103be57600182821c16878260051b8d0101525f1981146103ac57600101610377565b634e487b7160e01b8c5260118852888cfd5b634e487b7160e01b8c5260328852888cfd5b90508681813d8311610403575b6103e78183610451565b810103126103ff575180151581036103ff575f61029f565b8b80fd5b503d6103dd565b8a513d8e823e3d90fd5b9097508381813d831161043c575b61042c8183610451565b810103126103715751965f610228565b503d610422565b87513d8b823e3d90fd5b8380fd5b90601f8019910116810190811067ffffffffffffffff82111761047357604052565b634e487b7160e01b5f52604160045260245ffd5b67ffffffffffffffff81116104735760051b6020019056fea2646970667358221220bb13bf9e4fae4c653fb8917e1388a001b6b5c29973b433b27ded76c2b2acbaa364736f6c63430008140033000000000000000000000000c4b43616458994aed42d0f31680966fb8a020f360000000000000000000000001301d3c29a8723fae7ee1343203ea16bd78459960000000000000000000000000000000000000000000000000000000000000009d42853b216c274dc5159fa237ac4b67b422acb7b970118c97339f288b4f7d0d92f70321c09635875eb148858c1bd6602402563f4a72afa51af929e80013ad781"
        },
        {
          "transactionType": "CREATE2",
          "address": "0xa48a787a1fa82abb66a50c2ec7c12ae681fbdfb4",
          "initCode": "0x73d7869be21bbb2fe897e294935bbe74a5a3222f913d55731301d3c29a8723fae7ee1343203ea16bd78459966001557fd4feb1e31306210463d1914b1753a01c22ed58b21eaa7fa48e5ae026b4ccfc766002557f50726f6a65637420412d53686f7274000000000000000000000000000000001e6006557f50726f6a65637420412d535400000000000000000000000000000000000000186007556012600855602c6040518160ab8239f33d3d3d3d363d3d37363d73ed1c4a4c9d26481c2d31e2f286775ee95c7105095af43d3d93803e602a57fd5bf3"
        },
        {
          "transactionType": "CREATE2",
          "address": "0x78a380cc8c382c016d5618b8aa2517083bb7a734",
          "initCode": "0x73d7869be21bbb2fe897e294935bbe74a5a3222f913d55731301d3c29a8723fae7ee1343203ea16bd78459966001557f46bc334a66297193346b6be7ba2b476dced5497a19ee0eecb0dcc954b85080016002557f50726f6a65637420412d4c6f6e6700000000000000000000000000000000001c6006557f50726f6a65637420412d4c4700000000000000000000000000000000000000186007556012600855602c6040518160ab8239f33d3d3d3d363d3d37363d73ed1c4a4c9d26481c2d31e2f286775ee95c7105095af43d3d93803e602a57fd5bf3"
        },
        {
          "transactionType": "CREATE",
          "address": "0x2f468b32645d23951a33911895c027ef40e3cc16",
          "initCode": "0x3d602d80600a3d3981f3363d3d373d3d3d363d73ec2fd5cc903b267072e27f21f08653fed20e81e75af43d82803e903d91602b57fd5bf3"
        },
        {
          "transactionType": "CREATE2",
          "address": "0x2956896ae6eba1de8781b2484281f6fc1be3674b",
          "initCode": "0x73d7869be21bbb2fe897e294935bbe74a5a3222f913d55731301d3c29a8723fae7ee1343203ea16bd78459966001557f226245e49fe4ef117cbb19e0a1dff5143fa68c35dd125b2adf0de8c72e9a68fa6002557f50726f6a65637420422d53686f7274000000000000000000000000000000001e6006557f50726f6a65637420422d535400000000000000000000000000000000000000186007556012600855602c6040518160ab8239f33d3d3d3d363d3d37363d73ed1c4a4c9d26481c2d31e2f286775ee95c7105095af43d3d93803e602a57fd5bf3"
        },
        {
          "transactionType": "CREATE2",
          "address": "0xf17853621882ba4fd17a0b2160d59a5c2afcd630",
          "initCode": "0x73d7869be21bbb2fe897e294935bbe74a5a3222f913d55731301d3c29a8723fae7ee1343203ea16bd78459966001557f2c6e94fe4dad7c9380c8ecd7dcd1ddbe417803489140678c96287e141d7902416002557f50726f6a65637420422d4c6f6e6700000000000000000000000000000000001c6006557f50726f6a65637420422d4c4700000000000000000000000000000000000000186007556012600855602c6040518160ab8239f33d3d3d3d363d3d37363d73ed1c4a4c9d26481c2d31e2f286775ee95c7105095af43d3d93803e602a57fd5bf3"
        },
        {
          "transactionType": "CREATE",
          "address": "0x1b0e9f55766e35d6824da581b89cdc6f35e688bd",
          "initCode": "0x3d602d80600a3d3981f3363d3d373d3d3d363d73ec2fd5cc903b267072e27f21f08653fed20e81e75af43d82803e903d91602b57fd5bf3"
        },
        {
          "transactionType": "CREATE2",
          "address": "0x3d59154956cbfc646cefecb8c49f92cffa7accda",
          "initCode": "0x73d7869be21bbb2fe897e294935bbe74a5a3222f913d55731301d3c29a8723fae7ee1343203ea16bd78459966001557f490e02541bfb36a6f4af7e6a5bdd33e6747cc793143b175286cbfd3a97f44be16002557f50726f6a65637420432d53686f7274000000000000000000000000000000001e6006557f50726f6a65637420432d535400000000000000000000000000000000000000186007556012600855602c6040518160ab8239f33d3d3d3d363d3d37363d73ed1c4a4c9d26481c2d31e2f286775ee95c7105095af43d3d93803e602a57fd5bf3"
        },
        {
          "transactionType": "CREATE2",
          "address": "0x700b551f828293b4ec63f2762346450c52d7f630",
          "initCode": "0x73d7869be21bbb2fe897e294935bbe74a5a3222f913d55731301d3c29a8723fae7ee1343203ea16bd78459966001557fda3a529bcf0379b2ae0cfc675cad2e432ce472ce60011d621bbe0b3ba364368f6002557f50726f6a65637420432d4c6f6e6700000000000000000000000000000000001c6006557f50726f6a65637420432d4c4700000000000000000000000000000000000000186007556012600855602c6040518160ab8239f33d3d3d3d363d3d37363d73ed1c4a4c9d26481c2d31e2f286775ee95c7105095af43d3d93803e602a57fd5bf3"
        },
        {
          "transactionType": "CREATE",
          "address": "0x803f12d96af7e190992963f391f577d9b8fc72e9",
          "initCode": "0x3d602d80600a3d3981f3363d3d373d3d3d363d73ec2fd5cc903b267072e27f21f08653fed20e81e75af43d82803e903d91602b57fd5bf3"
        },
        {
          "transactionType": "CREATE2",
          "address": "0xbf3a828a2cce008c3d1982cf3b6232d3803d5601",
          "initCode": "0x73d7869be21bbb2fe897e294935bbe74a5a3222f913d55731301d3c29a8723fae7ee1343203ea16bd78459966001557f0fbb483f74e40f7129475dfb20f940a74e9b472276b0502d71392359483409766002557f50726f6a65637420452d53686f7274000000000000000000000000000000001e6006557f50726f6a65637420452d535400000000000000000000000000000000000000186007556012600855602c6040518160ab8239f33d3d3d3d363d3d37363d73ed1c4a4c9d26481c2d31e2f286775ee95c7105095af43d3d93803e602a57fd5bf3"
        },
        {
          "transactionType": "CREATE2",
          "address": "0xa92e663c5fc7de991f9afc5c1d7e9238e84edb1c",
          "initCode": "0x73d7869be21bbb2fe897e294935bbe74a5a3222f913d55731301d3c29a8723fae7ee1343203ea16bd78459966001557f35b3ae5d10ecedbbaa44efd9deef64d0ddac2006e6d0014ea017623dd255bb146002557f50726f6a65637420452d4c6f6e6700000000000000000000000000000000001c6006557f50726f6a65637420452d4c4700000000000000000000000000000000000000186007556012600855602c6040518160ab8239f33d3d3d3d363d3d37363d73ed1c4a4c9d26481c2d31e2f286775ee95c7105095af43d3d93803e602a57fd5bf3"
        },
        {
          "transactionType": "CREATE",
          "address": "0xa646e86ecdfbb6e20995f8df7b729628bc175f58",
          "initCode": "0x3d602d80600a3d3981f3363d3d373d3d3d363d73ec2fd5cc903b267072e27f21f08653fed20e81e75af43d82803e903d91602b57fd5bf3"
        },
        {
          "transactionType": "CREATE2",
          "address": "0x9f419a5f60492ec6175d3ebcb9b062450c80f841",
          "initCode": "0x73d7869be21bbb2fe897e294935bbe74a5a3222f913d55731301d3c29a8723fae7ee1343203ea16bd78459966001557f4e97d0d1816b5b3cf3abefe8390ac16c2571c4635b0f244ee8b6ba7d3762d5956002557f50726f6a65637420462d53686f7274000000000000000000000000000000001e6006557f50726f6a65637420462d535400000000000000000000000000000000000000186007556012600855602c6040518160ab8239f33d3d3d3d363d3d37363d73ed1c4a4c9d26481c2d31e2f286775ee95c7105095af43d3d93803e602a57fd5bf3"
        },
        {
          "transactionType": "CREATE2",
          "address": "0xab0c1d3872f0aa30aadaa4a1cb38906edb2264ff",
          "initCode": "0x73d7869be21bbb2fe897e294935bbe74a5a3222f913d55731301d3c29a8723fae7ee1343203ea16bd78459966001557fa1737ea9b2bda1f99d4cb3ad9eac9939e90751c1902189d986fadea2ef815f0e6002557f50726f6a65637420462d4c6f6e6700000000000000000000000000000000001c6006557f50726f6a65637420462d4c4700000000000000000000000000000000000000186007556012600855602c6040518160ab8239f33d3d3d3d363d3d37363d73ed1c4a4c9d26481c2d31e2f286775ee95c7105095af43d3d93803e602a57fd5bf3"
        },
        {
          "transactionType": "CREATE",
          "address": "0xb4f9704a7d2f472dc59475fa56d91c0ac43b79ed",
          "initCode": "0x3d602d80600a3d3981f3363d3d373d3d3d363d73ec2fd5cc903b267072e27f21f08653fed20e81e75af43d82803e903d91602b57fd5bf3"
        },
        {
          "transactionType": "CREATE2",
          "address": "0x553d77c418270dd1018ade6c02f155fee29263ec",
          "initCode": "0x73d7869be21bbb2fe897e294935bbe74a5a3222f913d55731301d3c29a8723fae7ee1343203ea16bd78459966001557f96d585c7d772fd23c86e67c6f1d7ac1f1b4afc02cfd4b14a2125c96680285a9c6002557f50726f6a65637420472d53686f7274000000000000000000000000000000001e6006557f50726f6a65637420472d535400000000000000000000000000000000000000186007556012600855602c6040518160ab8239f33d3d3d3d363d3d37363d73ed1c4a4c9d26481c2d31e2f286775ee95c7105095af43d3d93803e602a57fd5bf3"
        },
        {
          "transactionType": "CREATE2",
          "address": "0xb394b328e69424df9021faac308199fbc14671ef",
          "initCode": "0x73d7869be21bbb2fe897e294935bbe74a5a3222f913d55731301d3c29a8723fae7ee1343203ea16bd78459966001557f75c44a90f576bea6ac14343a730da3ae90fadc968b1a398ab6bfb485abc8bbc36002557f50726f6a65637420472d4c6f6e6700000000000000000000000000000000001c6006557f50726f6a65637420472d4c4700000000000000000000000000000000000000186007556012600855602c6040518160ab8239f33d3d3d3d363d3d37363d73ed1c4a4c9d26481c2d31e2f286775ee95c7105095af43d3d93803e602a57fd5bf3"
        },
        {
          "transactionType": "CREATE",
          "address": "0xbdb2331adfd270526e5f0357099f3ff8d8e35b55",
          "initCode": "0x3d602d80600a3d3981f3363d3d373d3d3d363d73ec2fd5cc903b267072e27f21f08653fed20e81e75af43d82803e903d91602b57fd5bf3"
        },
        {
          "transactionType": "CREATE2",
          "address": "0xe79a7bd1552a6f3551b6ca7e774099f74b8be9b8",
          "initCode": "0x73d7869be21bbb2fe897e294935bbe74a5a3222f913d55731301d3c29a8723fae7ee1343203ea16bd78459966001557fa0981be3749682547296fe5bea7a8b675a6aea2130f988b5054e32adf425c9d26002557f50726f6a65637420482d53686f7274000000000000000000000000000000001e6006557f50726f6a65637420482d535400000000000000000000000000000000000000186007556012600855602c6040518160ab8239f33d3d3d3d363d3d37363d73ed1c4a4c9d26481c2d31e2f286775ee95c7105095af43d3d93803e602a57fd5bf3"
        },
        {
          "transactionType": "CREATE2",
          "address": "0xf6578d2de9770269d0a0360920dcddfca1749d9f",
          "initCode": "0x73d7869be21bbb2fe897e294935bbe74a5a3222f913d55731301d3c29a8723fae7ee1343203ea16bd78459966001557f527f825866d8c7df189b2647a6692a65833589648e15a37b2d20e1e21feff7c46002557f50726f6a65637420482d4c6f6e6700000000000000000000000000000000001c6006557f50726f6a65637420482d4c4700000000000000000000000000000000000000186007556012600855602c6040518160ab8239f33d3d3d3d363d3d37363d73ed1c4a4c9d26481c2d31e2f286775ee95c7105095af43d3d93803e602a57fd5bf3"
        },
        {
          "transactionType": "CREATE",
          "address": "0xbd6f1894d92213ebc48dadc59ade7ae1be6f3a2d",
          "initCode": "0x3d602d80600a3d3981f3363d3d373d3d3d363d73ec2fd5cc903b267072e27f21f08653fed20e81e75af43d82803e903d91602b57fd5bf3"
        },
        {
          "transactionType": "CREATE2",
          "address": "0xab20745dafe8cbca0ca9da763a9143a1bf07234f",
          "initCode": "0x73d7869be21bbb2fe897e294935bbe74a5a3222f913d55731301d3c29a8723fae7ee1343203ea16bd78459966001557f5e66291f60fa9c0439a7c0b1f8737bc16e7ce7c1953abb8288c1ad864a1963606002557f50726f6a65637420492d53686f7274000000000000000000000000000000001e6006557f50726f6a65637420492d535400000000000000000000000000000000000000186007556012600855602c6040518160ab8239f33d3d3d3d363d3d37363d73ed1c4a4c9d26481c2d31e2f286775ee95c7105095af43d3d93803e602a57fd5bf3"
        },
        {
          "transactionType": "CREATE2",
          "address": "0x9113ce86f5b12bc3af20e0db7b5dfe52f47a6ca5",
          "initCode": "0x73d7869be21bbb2fe897e294935bbe74a5a3222f913d55731301d3c29a8723fae7ee1343203ea16bd78459966001557fba42762b31897cbec4c6abcd4fcd14c9c2782a8b0aaa97181a534675735f03a46002557f50726f6a65637420492d4c6f6e6700000000000000000000000000000000001c6006557f50726f6a65637420492d4c4700000000000000000000000000000000000000186007556012600855602c6040518160ab8239f33d3d3d3d363d3d37363d73ed1c4a4c9d26481c2d31e2f286775ee95c7105095af43d3d93803e602a57fd5bf3"
        },
        {
          "transactionType": "CREATE",
          "address": "0x8d0d54bb87250488c1a5fe0a18332cd1af2b2044",
          "initCode": "0x3d602d80600a3d3981f3363d3d373d3d3d363d73ec2fd5cc903b267072e27f21f08653fed20e81e75af43d82803e903d91602b57fd5bf3"
        },
        {
          "transactionType": "CREATE2",
          "address": "0x05c92c715714ff39e97245ce79b0ff4869f27781",
          "initCode": "0x73d7869be21bbb2fe897e294935bbe74a5a3222f913d55731301d3c29a8723fae7ee1343203ea16bd78459966001557f2df7e57bd281c5cb63f23adfe52a8d17288d40061df8b807142da806466abab36002557f50726f6a656374204a2d53686f7274000000000000000000000000000000001e6006557f50726f6a656374204a2d535400000000000000000000000000000000000000186007556012600855602c6040518160ab8239f33d3d3d3d363d3d37363d73ed1c4a4c9d26481c2d31e2f286775ee95c7105095af43d3d93803e602a57fd5bf3"
        },
        {
          "transactionType": "CREATE2",
          "address": "0x2bd12a2ab59a5b10fb892f37af409cdae7ec24f5",
          "initCode": "0x73d7869be21bbb2fe897e294935bbe74a5a3222f913d55731301d3c29a8723fae7ee1343203ea16bd78459966001557f0d9aead2a52d206e47406adae08e739365a13bfc011271c8580261eb8aa194ee6002557f50726f6a656374204a2d4c6f6e6700000000000000000000000000000000001c6006557f50726f6a656374204a2d4c4700000000000000000000000000000000000000186007556012600855602c6040518160ab8239f33d3d3d3d363d3d37363d73ed1c4a4c9d26481c2d31e2f286775ee95c7105095af43d3d93803e602a57fd5bf3"
        },
        {
          "transactionType": "CREATE",
          "address": "0x1de37a95e1c6fef5a0879c42d9f77b7d85f79156",
          "initCode": "0x3d602d80600a3d3981f3363d3d373d3d3d363d73ec2fd5cc903b267072e27f21f08653fed20e81e75af43d82803e903d91602b57fd5bf3"
        }
      ],
      "isFixedGasLimit": false
    }
  ],
  "receipts": [
    {
      "status": "0x1",
      "cumulativeGasUsed": "0xadb8f3",
      "logs": [
        {
          "address": "0x288799697ae9ebcedc1b30bbae6a38e03e41cddb",
          "topics": [
            "0xfe2dac156a3890636ce13f65f4fdf41dcaee11526e4a5374531572d92194796c",
            "0xd42853b216c274dc5159fa237ac4b67b422acb7b970118c97339f288b4f7d0d9",
            "0x000000000000000000000000c4b43616458994aed42d0f31680966fb8a020f36",
            "0xf473f0dfddb4ce0f67e7ad59ab6d2e1d2ebefabbf58248650dc0edcd08802ecd"
          ],
          "data": "0x000000000000000000000000000000000000000000000000000000000000000500000000000000000000000000000000000000000000000000000000000000e0000000000000000000000000756c1f6f031fa8ada12c340ea2559c0c4c93439d0000000000000000000000000000000000000000000000000000000000000e100000000000000000000000000000000000000000000000000000000067ae79700000000000000000000000000000000000000000000000000000000000000000000000000000000000000000000000000000000000000000000000006776993800000000000000000000000000000000000000000000000000000000000000884f7074696d69736d2046756e64696e6720526f756e642058595ae2909f2250726f6a6563742041222c2250726f6a6563742042222c2250726f6a6563742043222c2250726f6a6563742045222c2250726f6a6563742046222c2250726f6a6563742047222c2250726f6a6563742048222c2250726f6a6563742049222c2250726f6a656374204a22000000000000000000000000000000000000000000000000",
          "blockHash": "0x9e155e5def84bf9faa8e14bb00f1de084a25289df26a3621047e74d1e1944ba7",
          "blockNumber": "0x88ebec",
          "transactionHash": "0x3fe6ce7db49f454f121f522766cd02e99dd0e18a2d5130674a1f8f3931dad32e",
          "transactionIndex": "0x8",
          "logIndex": "0x4",
          "removed": false
        },
        {
          "address": "0x288799697ae9ebcedc1b30bbae6a38e03e41cddb",
          "topics": [
            "0x9641ca9d53af3bead658ffcc6c7d8c35e7dae9938367bd8eb45bee35d5c62504",
            "0xd42853b216c274dc5159fa237ac4b67b422acb7b970118c97339f288b4f7d0d9"
          ],
          "data": "0x00000000000000000000000000000000000000000000000000005af3107a4000",
          "blockHash": "0x9e155e5def84bf9faa8e14bb00f1de084a25289df26a3621047e74d1e1944ba7",
          "blockNumber": "0x88ebec",
          "transactionHash": "0x3fe6ce7db49f454f121f522766cd02e99dd0e18a2d5130674a1f8f3931dad32e",
          "transactionIndex": "0x8",
          "logIndex": "0x5",
          "removed": false
        },
        {
          "address": "0x1301d3c29a8723fae7ee1343203ea16bd7845996",
          "topics": [
            "0xab3760c3bd2bb38b5bcf54dc79802ed67338b4cf29f3054ded67ed24661e4177",
            "0x2f70321c09635875eb148858c1bd6602402563f4a72afa51af929e80013ad781",
            "0x000000000000000000000000c4b43616458994aed42d0f31680966fb8a020f36",
            "0xd42853b216c274dc5159fa237ac4b67b422acb7b970118c97339f288b4f7d0d9"
          ],
          "data": "0x0000000000000000000000000000000000000000000000000000000000000009",
          "blockHash": "0x9e155e5def84bf9faa8e14bb00f1de084a25289df26a3621047e74d1e1944ba7",
          "blockNumber": "0x88ebec",
          "transactionHash": "0x3fe6ce7db49f454f121f522766cd02e99dd0e18a2d5130674a1f8f3931dad32e",
          "transactionIndex": "0x8",
          "logIndex": "0x6",
          "removed": false
        },
        {
          "address": "0x76709d72e0d80cc26c807134940b59bc36c83543",
          "topics": [
            "0x089aa85a545781ece44568948fc58fc2cbd36a43e8e3a8ece47c37ff6dbe3749",
            "0x000000000000000000000000070d726db537627d81045969ff2051adf0c8c3e0"
          ],
          "data": "0x00000000000000000000000000000000000000000000000000000000000000a000000000000000000000000000000000000000000000000000000000000000e000000000000000000000000000000000000000000000000000000000000001200000000000000000000000000000000000000000000000000000000000000160000000000000000000000000818ba315d2e28372cbe01f507acec6fd72e41181000000000000000000000000000000000000000000000000000000000000001a4f7074696d69736d2046756e64696e6720526f756e642058595a000000000000000000000000000000000000000000000000000000000000000000000000001b5375706572636861696e207472616e73616374696f6e20666565730000000000000000000000000000000000000000000000000000000000000000000000000a323032352d30322d313500000000000000000000000000000000000000000000000000000000000000000000000000000000000000000000000000000000000a323032352d30362d313500000000000000000000000000000000000000000000",
          "blockHash": "0x9e155e5def84bf9faa8e14bb00f1de084a25289df26a3621047e74d1e1944ba7",
          "blockNumber": "0x88ebec",
          "transactionHash": "0x3fe6ce7db49f454f121f522766cd02e99dd0e18a2d5130674a1f8f3931dad32e",
          "transactionIndex": "0x8",
          "logIndex": "0x7",
          "removed": false
        },
        {
          "address": "0x288799697ae9ebcedc1b30bbae6a38e03e41cddb",
          "topics": [
            "0xfe2dac156a3890636ce13f65f4fdf41dcaee11526e4a5374531572d92194796c",
            "0x12fcdfe92078663d984c6c3db1b7969fec8f46389603c6e01ba57b5e5b05dc87",
            "0x000000000000000000000000c4b43616458994aed42d0f31680966fb8a020f36",
            "0x07d9bb4b81f6287f33859670f34db37f586d7bd892d8ab4d824eaf1efe431d31"
          ],
          "data": "0x000000000000000000000000000000000000000000000000000000000000000600000000000000000000000000000000000000000000000000000000000000e0000000000000000000000000756c1f6f031fa8ada12c340ea2559c0c4c93439d0000000000000000000000000000000000000000000000000000000000000e1000000000000000000000000000000000000000000000000000000000684f42600000000000000000000000000000000000000000000000000000000000000000000000000000000000000000000000000000000000000000000000006776993800000000000000000000000000000000000000000000000000000000000000415375706572636861696e207472616e73616374696f6e2066656573e2909f50726f6a6563742041e2909f323032352d30322d3135e2909f323032352d30362d313500000000000000000000000000000000000000000000000000000000000000",
          "blockHash": "0x9e155e5def84bf9faa8e14bb00f1de084a25289df26a3621047e74d1e1944ba7",
          "blockNumber": "0x88ebec",
          "transactionHash": "0x3fe6ce7db49f454f121f522766cd02e99dd0e18a2d5130674a1f8f3931dad32e",
          "transactionIndex": "0x8",
          "logIndex": "0x8",
          "removed": false
        },
        {
          "address": "0x288799697ae9ebcedc1b30bbae6a38e03e41cddb",
          "topics": [
            "0x9641ca9d53af3bead658ffcc6c7d8c35e7dae9938367bd8eb45bee35d5c62504",
            "0x12fcdfe92078663d984c6c3db1b7969fec8f46389603c6e01ba57b5e5b05dc87"
          ],
          "data": "0x00000000000000000000000000000000000000000000000000005af3107a4000",
          "blockHash": "0x9e155e5def84bf9faa8e14bb00f1de084a25289df26a3621047e74d1e1944ba7",
          "blockNumber": "0x88ebec",
          "transactionHash": "0x3fe6ce7db49f454f121f522766cd02e99dd0e18a2d5130674a1f8f3931dad32e",
          "transactionIndex": "0x8",
          "logIndex": "0x9",
          "removed": false
        },
        {
          "address": "0x1301d3c29a8723fae7ee1343203ea16bd7845996",
          "topics": [
            "0xab3760c3bd2bb38b5bcf54dc79802ed67338b4cf29f3054ded67ed24661e4177",
            "0x1e7b4cd20341b56ac96512687d758172a00966982d0631d580bdb361208504f1",
            "0x00000000000000000000000076709d72e0d80cc26c807134940b59bc36c83543",
            "0x12fcdfe92078663d984c6c3db1b7969fec8f46389603c6e01ba57b5e5b05dc87"
          ],
          "data": "0x0000000000000000000000000000000000000000000000000000000000000002",
          "blockHash": "0x9e155e5def84bf9faa8e14bb00f1de084a25289df26a3621047e74d1e1944ba7",
          "blockNumber": "0x88ebec",
          "transactionHash": "0x3fe6ce7db49f454f121f522766cd02e99dd0e18a2d5130674a1f8f3931dad32e",
          "transactionIndex": "0x8",
          "logIndex": "0xa",
          "removed": false
        },
        {
          "address": "0xd7869be21bbb2fe897e294935bbe74a5a3222f91",
          "topics": [
            "0x5cf3a4006b0dcb221517555192a3e5df5e19783c22ea769c1ef46dd421ae2d32",
            "0x0000000000000000000000001301d3c29a8723fae7ee1343203ea16bd7845996",
            "0xd4feb1e31306210463d1914b1753a01c22ed58b21eaa7fa48e5ae026b4ccfc76",
            "0x000000000000000000000000a48a787a1fa82abb66a50c2ec7c12ae681fbdfb4"
          ],
          "data": "0x",
          "blockHash": "0x9e155e5def84bf9faa8e14bb00f1de084a25289df26a3621047e74d1e1944ba7",
          "blockNumber": "0x88ebec",
          "transactionHash": "0x3fe6ce7db49f454f121f522766cd02e99dd0e18a2d5130674a1f8f3931dad32e",
          "transactionIndex": "0x8",
          "logIndex": "0xb",
          "removed": false
        },
        {
          "address": "0xd7869be21bbb2fe897e294935bbe74a5a3222f91",
          "topics": [
            "0x5cf3a4006b0dcb221517555192a3e5df5e19783c22ea769c1ef46dd421ae2d32",
            "0x0000000000000000000000001301d3c29a8723fae7ee1343203ea16bd7845996",
            "0x46bc334a66297193346b6be7ba2b476dced5497a19ee0eecb0dcc954b8508001",
            "0x00000000000000000000000078a380cc8c382c016d5618b8aa2517083bb7a734"
          ],
          "data": "0x",
          "blockHash": "0x9e155e5def84bf9faa8e14bb00f1de084a25289df26a3621047e74d1e1944ba7",
          "blockNumber": "0x88ebec",
          "transactionHash": "0x3fe6ce7db49f454f121f522766cd02e99dd0e18a2d5130674a1f8f3931dad32e",
          "transactionIndex": "0x8",
          "logIndex": "0xc",
          "removed": false
        },
        {
          "address": "0x76709d72e0d80cc26c807134940b59bc36c83543",
          "topics": [
            "0x49c8ccb0c6bfef26356642bea151d5dbd402bb0d3632ec51e781b20ac314de6c",
            "0x000000000000000000000000070d726db537627d81045969ff2051adf0c8c3e0",
            "0x0000000000000000000000002f468b32645d23951a33911895c027ef40e3cc16"
          ],
          "data": "0x00000000000000000000000000000000000000000000000000000000000000000000000000000000000000000000000000000000000000000000000000000040000000000000000000000000000000000000000000000000000000000000000950726f6a65637420410000000000000000000000000000000000000000000000",
          "blockHash": "0x9e155e5def84bf9faa8e14bb00f1de084a25289df26a3621047e74d1e1944ba7",
          "blockNumber": "0x88ebec",
          "transactionHash": "0x3fe6ce7db49f454f121f522766cd02e99dd0e18a2d5130674a1f8f3931dad32e",
          "transactionIndex": "0x8",
          "logIndex": "0xd",
          "removed": false
        },
        {
          "address": "0x288799697ae9ebcedc1b30bbae6a38e03e41cddb",
          "topics": [
            "0xfe2dac156a3890636ce13f65f4fdf41dcaee11526e4a5374531572d92194796c",
            "0x51dbd24d5743f0e01169b6fcd650f118a7c6318c39de6c78e80207ae2c379db7",
            "0x000000000000000000000000c4b43616458994aed42d0f31680966fb8a020f36",
            "0x6d94d99ef46c51586a96e1db18fc7267f089d60217a46855a694753764b99fc7"
          ],
          "data": "0x000000000000000000000000000000000000000000000000000000000000000600000000000000000000000000000000000000000000000000000000000000e0000000000000000000000000756c1f6f031fa8ada12c340ea2559c0c4c93439d0000000000000000000000000000000000000000000000000000000000000e1000000000000000000000000000000000000000000000000000000000684f42600000000000000000000000000000000000000000000000000000000000000000000000000000000000000000000000000000000000000000000000006776993800000000000000000000000000000000000000000000000000000000000000415375706572636861696e207472616e73616374696f6e2066656573e2909f50726f6a6563742042e2909f323032352d30322d3135e2909f323032352d30362d313500000000000000000000000000000000000000000000000000000000000000",
          "blockHash": "0x9e155e5def84bf9faa8e14bb00f1de084a25289df26a3621047e74d1e1944ba7",
          "blockNumber": "0x88ebec",
          "transactionHash": "0x3fe6ce7db49f454f121f522766cd02e99dd0e18a2d5130674a1f8f3931dad32e",
          "transactionIndex": "0x8",
          "logIndex": "0xe",
          "removed": false
        },
        {
          "address": "0x288799697ae9ebcedc1b30bbae6a38e03e41cddb",
          "topics": [
            "0x9641ca9d53af3bead658ffcc6c7d8c35e7dae9938367bd8eb45bee35d5c62504",
            "0x51dbd24d5743f0e01169b6fcd650f118a7c6318c39de6c78e80207ae2c379db7"
          ],
          "data": "0x00000000000000000000000000000000000000000000000000005af3107a4000",
          "blockHash": "0x9e155e5def84bf9faa8e14bb00f1de084a25289df26a3621047e74d1e1944ba7",
          "blockNumber": "0x88ebec",
          "transactionHash": "0x3fe6ce7db49f454f121f522766cd02e99dd0e18a2d5130674a1f8f3931dad32e",
          "transactionIndex": "0x8",
          "logIndex": "0xf",
          "removed": false
        },
        {
          "address": "0x1301d3c29a8723fae7ee1343203ea16bd7845996",
          "topics": [
            "0xab3760c3bd2bb38b5bcf54dc79802ed67338b4cf29f3054ded67ed24661e4177",
            "0x11ccfe2625eeb38b2994518c522b709762c201adb16bf7d2603229d1d0d5b20e",
            "0x00000000000000000000000076709d72e0d80cc26c807134940b59bc36c83543",
            "0x51dbd24d5743f0e01169b6fcd650f118a7c6318c39de6c78e80207ae2c379db7"
          ],
          "data": "0x0000000000000000000000000000000000000000000000000000000000000002",
          "blockHash": "0x9e155e5def84bf9faa8e14bb00f1de084a25289df26a3621047e74d1e1944ba7",
          "blockNumber": "0x88ebec",
          "transactionHash": "0x3fe6ce7db49f454f121f522766cd02e99dd0e18a2d5130674a1f8f3931dad32e",
          "transactionIndex": "0x8",
          "logIndex": "0x10",
          "removed": false
        },
        {
          "address": "0xd7869be21bbb2fe897e294935bbe74a5a3222f91",
          "topics": [
            "0x5cf3a4006b0dcb221517555192a3e5df5e19783c22ea769c1ef46dd421ae2d32",
            "0x0000000000000000000000001301d3c29a8723fae7ee1343203ea16bd7845996",
            "0x226245e49fe4ef117cbb19e0a1dff5143fa68c35dd125b2adf0de8c72e9a68fa",
            "0x0000000000000000000000002956896ae6eba1de8781b2484281f6fc1be3674b"
          ],
          "data": "0x",
          "blockHash": "0x9e155e5def84bf9faa8e14bb00f1de084a25289df26a3621047e74d1e1944ba7",
          "blockNumber": "0x88ebec",
          "transactionHash": "0x3fe6ce7db49f454f121f522766cd02e99dd0e18a2d5130674a1f8f3931dad32e",
          "transactionIndex": "0x8",
          "logIndex": "0x11",
          "removed": false
        },
        {
          "address": "0xd7869be21bbb2fe897e294935bbe74a5a3222f91",
          "topics": [
            "0x5cf3a4006b0dcb221517555192a3e5df5e19783c22ea769c1ef46dd421ae2d32",
            "0x0000000000000000000000001301d3c29a8723fae7ee1343203ea16bd7845996",
            "0x2c6e94fe4dad7c9380c8ecd7dcd1ddbe417803489140678c96287e141d790241",
            "0x000000000000000000000000f17853621882ba4fd17a0b2160d59a5c2afcd630"
          ],
          "data": "0x",
          "blockHash": "0x9e155e5def84bf9faa8e14bb00f1de084a25289df26a3621047e74d1e1944ba7",
          "blockNumber": "0x88ebec",
          "transactionHash": "0x3fe6ce7db49f454f121f522766cd02e99dd0e18a2d5130674a1f8f3931dad32e",
          "transactionIndex": "0x8",
          "logIndex": "0x12",
          "removed": false
        },
        {
          "address": "0x76709d72e0d80cc26c807134940b59bc36c83543",
          "topics": [
            "0x49c8ccb0c6bfef26356642bea151d5dbd402bb0d3632ec51e781b20ac314de6c",
            "0x000000000000000000000000070d726db537627d81045969ff2051adf0c8c3e0",
            "0x0000000000000000000000001b0e9f55766e35d6824da581b89cdc6f35e688bd"
          ],
          "data": "0x00000000000000000000000000000000000000000000000000000000000000010000000000000000000000000000000000000000000000000000000000000040000000000000000000000000000000000000000000000000000000000000000950726f6a65637420420000000000000000000000000000000000000000000000",
          "blockHash": "0x9e155e5def84bf9faa8e14bb00f1de084a25289df26a3621047e74d1e1944ba7",
          "blockNumber": "0x88ebec",
          "transactionHash": "0x3fe6ce7db49f454f121f522766cd02e99dd0e18a2d5130674a1f8f3931dad32e",
          "transactionIndex": "0x8",
          "logIndex": "0x13",
          "removed": false
        },
        {
          "address": "0x288799697ae9ebcedc1b30bbae6a38e03e41cddb",
          "topics": [
            "0xfe2dac156a3890636ce13f65f4fdf41dcaee11526e4a5374531572d92194796c",
            "0xb5657faf1947391f59c199361d41e717fe96e9592200ae49b2fca86e18e080e2",
            "0x000000000000000000000000c4b43616458994aed42d0f31680966fb8a020f36",
            "0x7c8aaebe1087dbe02591001e55246a28b583e6baa59543de805b08d808fe799e"
          ],
          "data": "0x000000000000000000000000000000000000000000000000000000000000000600000000000000000000000000000000000000000000000000000000000000e0000000000000000000000000756c1f6f031fa8ada12c340ea2559c0c4c93439d0000000000000000000000000000000000000000000000000000000000000e1000000000000000000000000000000000000000000000000000000000684f42600000000000000000000000000000000000000000000000000000000000000000000000000000000000000000000000000000000000000000000000006776993800000000000000000000000000000000000000000000000000000000000000415375706572636861696e207472616e73616374696f6e2066656573e2909f50726f6a6563742043e2909f323032352d30322d3135e2909f323032352d30362d313500000000000000000000000000000000000000000000000000000000000000",
          "blockHash": "0x9e155e5def84bf9faa8e14bb00f1de084a25289df26a3621047e74d1e1944ba7",
          "blockNumber": "0x88ebec",
          "transactionHash": "0x3fe6ce7db49f454f121f522766cd02e99dd0e18a2d5130674a1f8f3931dad32e",
          "transactionIndex": "0x8",
          "logIndex": "0x14",
          "removed": false
        },
        {
          "address": "0x288799697ae9ebcedc1b30bbae6a38e03e41cddb",
          "topics": [
            "0x9641ca9d53af3bead658ffcc6c7d8c35e7dae9938367bd8eb45bee35d5c62504",
            "0xb5657faf1947391f59c199361d41e717fe96e9592200ae49b2fca86e18e080e2"
          ],
          "data": "0x00000000000000000000000000000000000000000000000000005af3107a4000",
          "blockHash": "0x9e155e5def84bf9faa8e14bb00f1de084a25289df26a3621047e74d1e1944ba7",
          "blockNumber": "0x88ebec",
          "transactionHash": "0x3fe6ce7db49f454f121f522766cd02e99dd0e18a2d5130674a1f8f3931dad32e",
          "transactionIndex": "0x8",
          "logIndex": "0x15",
          "removed": false
        },
        {
          "address": "0x1301d3c29a8723fae7ee1343203ea16bd7845996",
          "topics": [
            "0xab3760c3bd2bb38b5bcf54dc79802ed67338b4cf29f3054ded67ed24661e4177",
            "0x2303a9684c8d6fccf668d8a22460345777bc152ea69dc5d2d954dbf49eefc0fa",
            "0x00000000000000000000000076709d72e0d80cc26c807134940b59bc36c83543",
            "0xb5657faf1947391f59c199361d41e717fe96e9592200ae49b2fca86e18e080e2"
          ],
          "data": "0x0000000000000000000000000000000000000000000000000000000000000002",
          "blockHash": "0x9e155e5def84bf9faa8e14bb00f1de084a25289df26a3621047e74d1e1944ba7",
          "blockNumber": "0x88ebec",
          "transactionHash": "0x3fe6ce7db49f454f121f522766cd02e99dd0e18a2d5130674a1f8f3931dad32e",
          "transactionIndex": "0x8",
          "logIndex": "0x16",
          "removed": false
        },
        {
          "address": "0xd7869be21bbb2fe897e294935bbe74a5a3222f91",
          "topics": [
            "0x5cf3a4006b0dcb221517555192a3e5df5e19783c22ea769c1ef46dd421ae2d32",
            "0x0000000000000000000000001301d3c29a8723fae7ee1343203ea16bd7845996",
            "0x490e02541bfb36a6f4af7e6a5bdd33e6747cc793143b175286cbfd3a97f44be1",
            "0x0000000000000000000000003d59154956cbfc646cefecb8c49f92cffa7accda"
          ],
          "data": "0x",
          "blockHash": "0x9e155e5def84bf9faa8e14bb00f1de084a25289df26a3621047e74d1e1944ba7",
          "blockNumber": "0x88ebec",
          "transactionHash": "0x3fe6ce7db49f454f121f522766cd02e99dd0e18a2d5130674a1f8f3931dad32e",
          "transactionIndex": "0x8",
          "logIndex": "0x17",
          "removed": false
        },
        {
          "address": "0xd7869be21bbb2fe897e294935bbe74a5a3222f91",
          "topics": [
            "0x5cf3a4006b0dcb221517555192a3e5df5e19783c22ea769c1ef46dd421ae2d32",
            "0x0000000000000000000000001301d3c29a8723fae7ee1343203ea16bd7845996",
            "0xda3a529bcf0379b2ae0cfc675cad2e432ce472ce60011d621bbe0b3ba364368f",
            "0x000000000000000000000000700b551f828293b4ec63f2762346450c52d7f630"
          ],
          "data": "0x",
          "blockHash": "0x9e155e5def84bf9faa8e14bb00f1de084a25289df26a3621047e74d1e1944ba7",
          "blockNumber": "0x88ebec",
          "transactionHash": "0x3fe6ce7db49f454f121f522766cd02e99dd0e18a2d5130674a1f8f3931dad32e",
          "transactionIndex": "0x8",
          "logIndex": "0x18",
          "removed": false
        },
        {
          "address": "0x76709d72e0d80cc26c807134940b59bc36c83543",
          "topics": [
            "0x49c8ccb0c6bfef26356642bea151d5dbd402bb0d3632ec51e781b20ac314de6c",
            "0x000000000000000000000000070d726db537627d81045969ff2051adf0c8c3e0",
            "0x000000000000000000000000803f12d96af7e190992963f391f577d9b8fc72e9"
          ],
          "data": "0x00000000000000000000000000000000000000000000000000000000000000020000000000000000000000000000000000000000000000000000000000000040000000000000000000000000000000000000000000000000000000000000000950726f6a65637420430000000000000000000000000000000000000000000000",
          "blockHash": "0x9e155e5def84bf9faa8e14bb00f1de084a25289df26a3621047e74d1e1944ba7",
          "blockNumber": "0x88ebec",
          "transactionHash": "0x3fe6ce7db49f454f121f522766cd02e99dd0e18a2d5130674a1f8f3931dad32e",
          "transactionIndex": "0x8",
          "logIndex": "0x19",
          "removed": false
        },
        {
          "address": "0x288799697ae9ebcedc1b30bbae6a38e03e41cddb",
          "topics": [
            "0xfe2dac156a3890636ce13f65f4fdf41dcaee11526e4a5374531572d92194796c",
            "0x49edf0e8f5d8d5b04aa2dd52d40c785b366a591546c6b859c94af816f58e84e2",
            "0x000000000000000000000000c4b43616458994aed42d0f31680966fb8a020f36",
            "0x7a37f594f624fd679157146660f1011de982681a93b17723eec4a999d232edf3"
          ],
          "data": "0x000000000000000000000000000000000000000000000000000000000000000600000000000000000000000000000000000000000000000000000000000000e0000000000000000000000000756c1f6f031fa8ada12c340ea2559c0c4c93439d0000000000000000000000000000000000000000000000000000000000000e1000000000000000000000000000000000000000000000000000000000684f42600000000000000000000000000000000000000000000000000000000000000000000000000000000000000000000000000000000000000000000000006776993800000000000000000000000000000000000000000000000000000000000000415375706572636861696e207472616e73616374696f6e2066656573e2909f50726f6a6563742045e2909f323032352d30322d3135e2909f323032352d30362d313500000000000000000000000000000000000000000000000000000000000000",
          "blockHash": "0x9e155e5def84bf9faa8e14bb00f1de084a25289df26a3621047e74d1e1944ba7",
          "blockNumber": "0x88ebec",
          "transactionHash": "0x3fe6ce7db49f454f121f522766cd02e99dd0e18a2d5130674a1f8f3931dad32e",
          "transactionIndex": "0x8",
          "logIndex": "0x1a",
          "removed": false
        },
        {
          "address": "0x288799697ae9ebcedc1b30bbae6a38e03e41cddb",
          "topics": [
            "0x9641ca9d53af3bead658ffcc6c7d8c35e7dae9938367bd8eb45bee35d5c62504",
            "0x49edf0e8f5d8d5b04aa2dd52d40c785b366a591546c6b859c94af816f58e84e2"
          ],
          "data": "0x00000000000000000000000000000000000000000000000000005af3107a4000",
          "blockHash": "0x9e155e5def84bf9faa8e14bb00f1de084a25289df26a3621047e74d1e1944ba7",
          "blockNumber": "0x88ebec",
          "transactionHash": "0x3fe6ce7db49f454f121f522766cd02e99dd0e18a2d5130674a1f8f3931dad32e",
          "transactionIndex": "0x8",
          "logIndex": "0x1b",
          "removed": false
        },
        {
          "address": "0x1301d3c29a8723fae7ee1343203ea16bd7845996",
          "topics": [
            "0xab3760c3bd2bb38b5bcf54dc79802ed67338b4cf29f3054ded67ed24661e4177",
            "0xd90d80e2dce003932128fdfdba1e03a6d694e8e4bdb4ccdd8b556d5e1f953e8a",
            "0x00000000000000000000000076709d72e0d80cc26c807134940b59bc36c83543",
            "0x49edf0e8f5d8d5b04aa2dd52d40c785b366a591546c6b859c94af816f58e84e2"
          ],
          "data": "0x0000000000000000000000000000000000000000000000000000000000000002",
          "blockHash": "0x9e155e5def84bf9faa8e14bb00f1de084a25289df26a3621047e74d1e1944ba7",
          "blockNumber": "0x88ebec",
          "transactionHash": "0x3fe6ce7db49f454f121f522766cd02e99dd0e18a2d5130674a1f8f3931dad32e",
          "transactionIndex": "0x8",
          "logIndex": "0x1c",
          "removed": false
        },
        {
          "address": "0xd7869be21bbb2fe897e294935bbe74a5a3222f91",
          "topics": [
            "0x5cf3a4006b0dcb221517555192a3e5df5e19783c22ea769c1ef46dd421ae2d32",
            "0x0000000000000000000000001301d3c29a8723fae7ee1343203ea16bd7845996",
            "0x0fbb483f74e40f7129475dfb20f940a74e9b472276b0502d7139235948340976",
            "0x000000000000000000000000bf3a828a2cce008c3d1982cf3b6232d3803d5601"
          ],
          "data": "0x",
          "blockHash": "0x9e155e5def84bf9faa8e14bb00f1de084a25289df26a3621047e74d1e1944ba7",
          "blockNumber": "0x88ebec",
          "transactionHash": "0x3fe6ce7db49f454f121f522766cd02e99dd0e18a2d5130674a1f8f3931dad32e",
          "transactionIndex": "0x8",
          "logIndex": "0x1d",
          "removed": false
        },
        {
          "address": "0xd7869be21bbb2fe897e294935bbe74a5a3222f91",
          "topics": [
            "0x5cf3a4006b0dcb221517555192a3e5df5e19783c22ea769c1ef46dd421ae2d32",
            "0x0000000000000000000000001301d3c29a8723fae7ee1343203ea16bd7845996",
            "0x35b3ae5d10ecedbbaa44efd9deef64d0ddac2006e6d0014ea017623dd255bb14",
            "0x000000000000000000000000a92e663c5fc7de991f9afc5c1d7e9238e84edb1c"
          ],
          "data": "0x",
          "blockHash": "0x9e155e5def84bf9faa8e14bb00f1de084a25289df26a3621047e74d1e1944ba7",
          "blockNumber": "0x88ebec",
          "transactionHash": "0x3fe6ce7db49f454f121f522766cd02e99dd0e18a2d5130674a1f8f3931dad32e",
          "transactionIndex": "0x8",
          "logIndex": "0x1e",
          "removed": false
        },
        {
          "address": "0x76709d72e0d80cc26c807134940b59bc36c83543",
          "topics": [
            "0x49c8ccb0c6bfef26356642bea151d5dbd402bb0d3632ec51e781b20ac314de6c",
            "0x000000000000000000000000070d726db537627d81045969ff2051adf0c8c3e0",
            "0x000000000000000000000000a646e86ecdfbb6e20995f8df7b729628bc175f58"
          ],
          "data": "0x00000000000000000000000000000000000000000000000000000000000000030000000000000000000000000000000000000000000000000000000000000040000000000000000000000000000000000000000000000000000000000000000950726f6a65637420450000000000000000000000000000000000000000000000",
          "blockHash": "0x9e155e5def84bf9faa8e14bb00f1de084a25289df26a3621047e74d1e1944ba7",
          "blockNumber": "0x88ebec",
          "transactionHash": "0x3fe6ce7db49f454f121f522766cd02e99dd0e18a2d5130674a1f8f3931dad32e",
          "transactionIndex": "0x8",
          "logIndex": "0x1f",
          "removed": false
        },
        {
          "address": "0x288799697ae9ebcedc1b30bbae6a38e03e41cddb",
          "topics": [
            "0xfe2dac156a3890636ce13f65f4fdf41dcaee11526e4a5374531572d92194796c",
            "0x50477d84e37a0ff3c81fef0e6e4efb3f4e27e49124f2afcaa36bf933087695e8",
            "0x000000000000000000000000c4b43616458994aed42d0f31680966fb8a020f36",
            "0x3ffa41c73ebaf983f1bbc692700e409cd765bd1413a30b41e86fe42e7d65ea5a"
          ],
          "data": "0x000000000000000000000000000000000000000000000000000000000000000600000000000000000000000000000000000000000000000000000000000000e0000000000000000000000000756c1f6f031fa8ada12c340ea2559c0c4c93439d0000000000000000000000000000000000000000000000000000000000000e1000000000000000000000000000000000000000000000000000000000684f42600000000000000000000000000000000000000000000000000000000000000000000000000000000000000000000000000000000000000000000000006776993800000000000000000000000000000000000000000000000000000000000000415375706572636861696e207472616e73616374696f6e2066656573e2909f50726f6a6563742046e2909f323032352d30322d3135e2909f323032352d30362d313500000000000000000000000000000000000000000000000000000000000000",
          "blockHash": "0x9e155e5def84bf9faa8e14bb00f1de084a25289df26a3621047e74d1e1944ba7",
          "blockNumber": "0x88ebec",
          "transactionHash": "0x3fe6ce7db49f454f121f522766cd02e99dd0e18a2d5130674a1f8f3931dad32e",
          "transactionIndex": "0x8",
          "logIndex": "0x20",
          "removed": false
        },
        {
          "address": "0x288799697ae9ebcedc1b30bbae6a38e03e41cddb",
          "topics": [
            "0x9641ca9d53af3bead658ffcc6c7d8c35e7dae9938367bd8eb45bee35d5c62504",
            "0x50477d84e37a0ff3c81fef0e6e4efb3f4e27e49124f2afcaa36bf933087695e8"
          ],
          "data": "0x00000000000000000000000000000000000000000000000000005af3107a4000",
          "blockHash": "0x9e155e5def84bf9faa8e14bb00f1de084a25289df26a3621047e74d1e1944ba7",
          "blockNumber": "0x88ebec",
          "transactionHash": "0x3fe6ce7db49f454f121f522766cd02e99dd0e18a2d5130674a1f8f3931dad32e",
          "transactionIndex": "0x8",
          "logIndex": "0x21",
          "removed": false
        },
        {
          "address": "0x1301d3c29a8723fae7ee1343203ea16bd7845996",
          "topics": [
            "0xab3760c3bd2bb38b5bcf54dc79802ed67338b4cf29f3054ded67ed24661e4177",
            "0xcfa31aad440833af53e3cef9486f709881115fe7f4a2cc67f11f4a87c88bbed4",
            "0x00000000000000000000000076709d72e0d80cc26c807134940b59bc36c83543",
            "0x50477d84e37a0ff3c81fef0e6e4efb3f4e27e49124f2afcaa36bf933087695e8"
          ],
          "data": "0x0000000000000000000000000000000000000000000000000000000000000002",
          "blockHash": "0x9e155e5def84bf9faa8e14bb00f1de084a25289df26a3621047e74d1e1944ba7",
          "blockNumber": "0x88ebec",
          "transactionHash": "0x3fe6ce7db49f454f121f522766cd02e99dd0e18a2d5130674a1f8f3931dad32e",
          "transactionIndex": "0x8",
          "logIndex": "0x22",
          "removed": false
        },
        {
          "address": "0xd7869be21bbb2fe897e294935bbe74a5a3222f91",
          "topics": [
            "0x5cf3a4006b0dcb221517555192a3e5df5e19783c22ea769c1ef46dd421ae2d32",
            "0x0000000000000000000000001301d3c29a8723fae7ee1343203ea16bd7845996",
            "0x4e97d0d1816b5b3cf3abefe8390ac16c2571c4635b0f244ee8b6ba7d3762d595",
            "0x0000000000000000000000009f419a5f60492ec6175d3ebcb9b062450c80f841"
          ],
          "data": "0x",
          "blockHash": "0x9e155e5def84bf9faa8e14bb00f1de084a25289df26a3621047e74d1e1944ba7",
          "blockNumber": "0x88ebec",
          "transactionHash": "0x3fe6ce7db49f454f121f522766cd02e99dd0e18a2d5130674a1f8f3931dad32e",
          "transactionIndex": "0x8",
          "logIndex": "0x23",
          "removed": false
        },
        {
          "address": "0xd7869be21bbb2fe897e294935bbe74a5a3222f91",
          "topics": [
            "0x5cf3a4006b0dcb221517555192a3e5df5e19783c22ea769c1ef46dd421ae2d32",
            "0x0000000000000000000000001301d3c29a8723fae7ee1343203ea16bd7845996",
            "0xa1737ea9b2bda1f99d4cb3ad9eac9939e90751c1902189d986fadea2ef815f0e",
            "0x000000000000000000000000ab0c1d3872f0aa30aadaa4a1cb38906edb2264ff"
          ],
          "data": "0x",
          "blockHash": "0x9e155e5def84bf9faa8e14bb00f1de084a25289df26a3621047e74d1e1944ba7",
          "blockNumber": "0x88ebec",
          "transactionHash": "0x3fe6ce7db49f454f121f522766cd02e99dd0e18a2d5130674a1f8f3931dad32e",
          "transactionIndex": "0x8",
          "logIndex": "0x24",
          "removed": false
        },
        {
          "address": "0x76709d72e0d80cc26c807134940b59bc36c83543",
          "topics": [
            "0x49c8ccb0c6bfef26356642bea151d5dbd402bb0d3632ec51e781b20ac314de6c",
            "0x000000000000000000000000070d726db537627d81045969ff2051adf0c8c3e0",
            "0x000000000000000000000000b4f9704a7d2f472dc59475fa56d91c0ac43b79ed"
          ],
          "data": "0x00000000000000000000000000000000000000000000000000000000000000040000000000000000000000000000000000000000000000000000000000000040000000000000000000000000000000000000000000000000000000000000000950726f6a65637420460000000000000000000000000000000000000000000000",
          "blockHash": "0x9e155e5def84bf9faa8e14bb00f1de084a25289df26a3621047e74d1e1944ba7",
          "blockNumber": "0x88ebec",
          "transactionHash": "0x3fe6ce7db49f454f121f522766cd02e99dd0e18a2d5130674a1f8f3931dad32e",
          "transactionIndex": "0x8",
          "logIndex": "0x25",
          "removed": false
        },
        {
          "address": "0x288799697ae9ebcedc1b30bbae6a38e03e41cddb",
          "topics": [
            "0xfe2dac156a3890636ce13f65f4fdf41dcaee11526e4a5374531572d92194796c",
            "0x6eb67fcb74ccb568d5102bc9a3fec4c0a04dbba81c71dd7e5954acd441c245f1",
            "0x000000000000000000000000c4b43616458994aed42d0f31680966fb8a020f36",
            "0x5bc3176daf94e2de8af7f667c3562fecdf8918cd38333284311ef8692b1693b1"
          ],
          "data": "0x000000000000000000000000000000000000000000000000000000000000000600000000000000000000000000000000000000000000000000000000000000e0000000000000000000000000756c1f6f031fa8ada12c340ea2559c0c4c93439d0000000000000000000000000000000000000000000000000000000000000e1000000000000000000000000000000000000000000000000000000000684f42600000000000000000000000000000000000000000000000000000000000000000000000000000000000000000000000000000000000000000000000006776993800000000000000000000000000000000000000000000000000000000000000415375706572636861696e207472616e73616374696f6e2066656573e2909f50726f6a6563742047e2909f323032352d30322d3135e2909f323032352d30362d313500000000000000000000000000000000000000000000000000000000000000",
          "blockHash": "0x9e155e5def84bf9faa8e14bb00f1de084a25289df26a3621047e74d1e1944ba7",
          "blockNumber": "0x88ebec",
          "transactionHash": "0x3fe6ce7db49f454f121f522766cd02e99dd0e18a2d5130674a1f8f3931dad32e",
          "transactionIndex": "0x8",
          "logIndex": "0x26",
          "removed": false
        },
        {
          "address": "0x288799697ae9ebcedc1b30bbae6a38e03e41cddb",
          "topics": [
            "0x9641ca9d53af3bead658ffcc6c7d8c35e7dae9938367bd8eb45bee35d5c62504",
            "0x6eb67fcb74ccb568d5102bc9a3fec4c0a04dbba81c71dd7e5954acd441c245f1"
          ],
          "data": "0x00000000000000000000000000000000000000000000000000005af3107a4000",
          "blockHash": "0x9e155e5def84bf9faa8e14bb00f1de084a25289df26a3621047e74d1e1944ba7",
          "blockNumber": "0x88ebec",
          "transactionHash": "0x3fe6ce7db49f454f121f522766cd02e99dd0e18a2d5130674a1f8f3931dad32e",
          "transactionIndex": "0x8",
          "logIndex": "0x27",
          "removed": false
        },
        {
          "address": "0x1301d3c29a8723fae7ee1343203ea16bd7845996",
          "topics": [
            "0xab3760c3bd2bb38b5bcf54dc79802ed67338b4cf29f3054ded67ed24661e4177",
            "0x9db5180dbdf5626179193e4b414828bd6b28adfdbb6776eea4e2a91e5d6034e0",
            "0x00000000000000000000000076709d72e0d80cc26c807134940b59bc36c83543",
            "0x6eb67fcb74ccb568d5102bc9a3fec4c0a04dbba81c71dd7e5954acd441c245f1"
          ],
          "data": "0x0000000000000000000000000000000000000000000000000000000000000002",
          "blockHash": "0x9e155e5def84bf9faa8e14bb00f1de084a25289df26a3621047e74d1e1944ba7",
          "blockNumber": "0x88ebec",
          "transactionHash": "0x3fe6ce7db49f454f121f522766cd02e99dd0e18a2d5130674a1f8f3931dad32e",
          "transactionIndex": "0x8",
          "logIndex": "0x28",
          "removed": false
        },
        {
          "address": "0xd7869be21bbb2fe897e294935bbe74a5a3222f91",
          "topics": [
            "0x5cf3a4006b0dcb221517555192a3e5df5e19783c22ea769c1ef46dd421ae2d32",
            "0x0000000000000000000000001301d3c29a8723fae7ee1343203ea16bd7845996",
            "0x96d585c7d772fd23c86e67c6f1d7ac1f1b4afc02cfd4b14a2125c96680285a9c",
            "0x000000000000000000000000553d77c418270dd1018ade6c02f155fee29263ec"
          ],
          "data": "0x",
          "blockHash": "0x9e155e5def84bf9faa8e14bb00f1de084a25289df26a3621047e74d1e1944ba7",
          "blockNumber": "0x88ebec",
          "transactionHash": "0x3fe6ce7db49f454f121f522766cd02e99dd0e18a2d5130674a1f8f3931dad32e",
          "transactionIndex": "0x8",
          "logIndex": "0x29",
          "removed": false
        },
        {
          "address": "0xd7869be21bbb2fe897e294935bbe74a5a3222f91",
          "topics": [
            "0x5cf3a4006b0dcb221517555192a3e5df5e19783c22ea769c1ef46dd421ae2d32",
            "0x0000000000000000000000001301d3c29a8723fae7ee1343203ea16bd7845996",
            "0x75c44a90f576bea6ac14343a730da3ae90fadc968b1a398ab6bfb485abc8bbc3",
            "0x000000000000000000000000b394b328e69424df9021faac308199fbc14671ef"
          ],
          "data": "0x",
          "blockHash": "0x9e155e5def84bf9faa8e14bb00f1de084a25289df26a3621047e74d1e1944ba7",
          "blockNumber": "0x88ebec",
          "transactionHash": "0x3fe6ce7db49f454f121f522766cd02e99dd0e18a2d5130674a1f8f3931dad32e",
          "transactionIndex": "0x8",
          "logIndex": "0x2a",
          "removed": false
        },
        {
          "address": "0x76709d72e0d80cc26c807134940b59bc36c83543",
          "topics": [
            "0x49c8ccb0c6bfef26356642bea151d5dbd402bb0d3632ec51e781b20ac314de6c",
            "0x000000000000000000000000070d726db537627d81045969ff2051adf0c8c3e0",
            "0x000000000000000000000000bdb2331adfd270526e5f0357099f3ff8d8e35b55"
          ],
          "data": "0x00000000000000000000000000000000000000000000000000000000000000050000000000000000000000000000000000000000000000000000000000000040000000000000000000000000000000000000000000000000000000000000000950726f6a65637420470000000000000000000000000000000000000000000000",
          "blockHash": "0x9e155e5def84bf9faa8e14bb00f1de084a25289df26a3621047e74d1e1944ba7",
          "blockNumber": "0x88ebec",
          "transactionHash": "0x3fe6ce7db49f454f121f522766cd02e99dd0e18a2d5130674a1f8f3931dad32e",
          "transactionIndex": "0x8",
          "logIndex": "0x2b",
          "removed": false
        },
        {
          "address": "0x288799697ae9ebcedc1b30bbae6a38e03e41cddb",
          "topics": [
            "0xfe2dac156a3890636ce13f65f4fdf41dcaee11526e4a5374531572d92194796c",
            "0x36695776716520918d2f3f9eaf53b76e0c027ad1757f03d9ba9e1d375396358d",
            "0x000000000000000000000000c4b43616458994aed42d0f31680966fb8a020f36",
            "0x61041bb94d2ecc85c021477aec1c3335bf472b612e05f67781e14c8be5aefde9"
          ],
          "data": "0x000000000000000000000000000000000000000000000000000000000000000600000000000000000000000000000000000000000000000000000000000000e0000000000000000000000000756c1f6f031fa8ada12c340ea2559c0c4c93439d0000000000000000000000000000000000000000000000000000000000000e1000000000000000000000000000000000000000000000000000000000684f42600000000000000000000000000000000000000000000000000000000000000000000000000000000000000000000000000000000000000000000000006776993800000000000000000000000000000000000000000000000000000000000000415375706572636861696e207472616e73616374696f6e2066656573e2909f50726f6a6563742048e2909f323032352d30322d3135e2909f323032352d30362d313500000000000000000000000000000000000000000000000000000000000000",
          "blockHash": "0x9e155e5def84bf9faa8e14bb00f1de084a25289df26a3621047e74d1e1944ba7",
          "blockNumber": "0x88ebec",
          "transactionHash": "0x3fe6ce7db49f454f121f522766cd02e99dd0e18a2d5130674a1f8f3931dad32e",
          "transactionIndex": "0x8",
          "logIndex": "0x2c",
          "removed": false
        },
        {
          "address": "0x288799697ae9ebcedc1b30bbae6a38e03e41cddb",
          "topics": [
            "0x9641ca9d53af3bead658ffcc6c7d8c35e7dae9938367bd8eb45bee35d5c62504",
            "0x36695776716520918d2f3f9eaf53b76e0c027ad1757f03d9ba9e1d375396358d"
          ],
          "data": "0x00000000000000000000000000000000000000000000000000005af3107a4000",
          "blockHash": "0x9e155e5def84bf9faa8e14bb00f1de084a25289df26a3621047e74d1e1944ba7",
          "blockNumber": "0x88ebec",
          "transactionHash": "0x3fe6ce7db49f454f121f522766cd02e99dd0e18a2d5130674a1f8f3931dad32e",
          "transactionIndex": "0x8",
          "logIndex": "0x2d",
          "removed": false
        },
        {
          "address": "0x1301d3c29a8723fae7ee1343203ea16bd7845996",
          "topics": [
            "0xab3760c3bd2bb38b5bcf54dc79802ed67338b4cf29f3054ded67ed24661e4177",
            "0x6d95ed3e82f996b24e75694907b41ec7e753e5fb04bfed680d6e02435db9cbbd",
            "0x00000000000000000000000076709d72e0d80cc26c807134940b59bc36c83543",
            "0x36695776716520918d2f3f9eaf53b76e0c027ad1757f03d9ba9e1d375396358d"
          ],
          "data": "0x0000000000000000000000000000000000000000000000000000000000000002",
          "blockHash": "0x9e155e5def84bf9faa8e14bb00f1de084a25289df26a3621047e74d1e1944ba7",
          "blockNumber": "0x88ebec",
          "transactionHash": "0x3fe6ce7db49f454f121f522766cd02e99dd0e18a2d5130674a1f8f3931dad32e",
          "transactionIndex": "0x8",
          "logIndex": "0x2e",
          "removed": false
        },
        {
          "address": "0xd7869be21bbb2fe897e294935bbe74a5a3222f91",
          "topics": [
            "0x5cf3a4006b0dcb221517555192a3e5df5e19783c22ea769c1ef46dd421ae2d32",
            "0x0000000000000000000000001301d3c29a8723fae7ee1343203ea16bd7845996",
            "0xa0981be3749682547296fe5bea7a8b675a6aea2130f988b5054e32adf425c9d2",
            "0x000000000000000000000000e79a7bd1552a6f3551b6ca7e774099f74b8be9b8"
          ],
          "data": "0x",
          "blockHash": "0x9e155e5def84bf9faa8e14bb00f1de084a25289df26a3621047e74d1e1944ba7",
          "blockNumber": "0x88ebec",
          "transactionHash": "0x3fe6ce7db49f454f121f522766cd02e99dd0e18a2d5130674a1f8f3931dad32e",
          "transactionIndex": "0x8",
          "logIndex": "0x2f",
          "removed": false
        },
        {
          "address": "0xd7869be21bbb2fe897e294935bbe74a5a3222f91",
          "topics": [
            "0x5cf3a4006b0dcb221517555192a3e5df5e19783c22ea769c1ef46dd421ae2d32",
            "0x0000000000000000000000001301d3c29a8723fae7ee1343203ea16bd7845996",
            "0x527f825866d8c7df189b2647a6692a65833589648e15a37b2d20e1e21feff7c4",
            "0x000000000000000000000000f6578d2de9770269d0a0360920dcddfca1749d9f"
          ],
          "data": "0x",
          "blockHash": "0x9e155e5def84bf9faa8e14bb00f1de084a25289df26a3621047e74d1e1944ba7",
          "blockNumber": "0x88ebec",
          "transactionHash": "0x3fe6ce7db49f454f121f522766cd02e99dd0e18a2d5130674a1f8f3931dad32e",
          "transactionIndex": "0x8",
          "logIndex": "0x30",
          "removed": false
        },
        {
          "address": "0x76709d72e0d80cc26c807134940b59bc36c83543",
          "topics": [
            "0x49c8ccb0c6bfef26356642bea151d5dbd402bb0d3632ec51e781b20ac314de6c",
            "0x000000000000000000000000070d726db537627d81045969ff2051adf0c8c3e0",
            "0x000000000000000000000000bd6f1894d92213ebc48dadc59ade7ae1be6f3a2d"
          ],
          "data": "0x00000000000000000000000000000000000000000000000000000000000000060000000000000000000000000000000000000000000000000000000000000040000000000000000000000000000000000000000000000000000000000000000950726f6a65637420480000000000000000000000000000000000000000000000",
          "blockHash": "0x9e155e5def84bf9faa8e14bb00f1de084a25289df26a3621047e74d1e1944ba7",
          "blockNumber": "0x88ebec",
          "transactionHash": "0x3fe6ce7db49f454f121f522766cd02e99dd0e18a2d5130674a1f8f3931dad32e",
          "transactionIndex": "0x8",
          "logIndex": "0x31",
          "removed": false
        },
        {
          "address": "0x288799697ae9ebcedc1b30bbae6a38e03e41cddb",
          "topics": [
            "0xfe2dac156a3890636ce13f65f4fdf41dcaee11526e4a5374531572d92194796c",
            "0x56f68df9a824a92ca2d8b6bb1ae79335a0ccf753d0cc3a0f9064adaf5db1402f",
            "0x000000000000000000000000c4b43616458994aed42d0f31680966fb8a020f36",
            "0xab59302e47268c6c3b4bdc3587215f8888d380688bc15ea63b5f5660a460475b"
          ],
          "data": "0x000000000000000000000000000000000000000000000000000000000000000600000000000000000000000000000000000000000000000000000000000000e0000000000000000000000000756c1f6f031fa8ada12c340ea2559c0c4c93439d0000000000000000000000000000000000000000000000000000000000000e1000000000000000000000000000000000000000000000000000000000684f42600000000000000000000000000000000000000000000000000000000000000000000000000000000000000000000000000000000000000000000000006776993800000000000000000000000000000000000000000000000000000000000000415375706572636861696e207472616e73616374696f6e2066656573e2909f50726f6a6563742049e2909f323032352d30322d3135e2909f323032352d30362d313500000000000000000000000000000000000000000000000000000000000000",
          "blockHash": "0x9e155e5def84bf9faa8e14bb00f1de084a25289df26a3621047e74d1e1944ba7",
          "blockNumber": "0x88ebec",
          "transactionHash": "0x3fe6ce7db49f454f121f522766cd02e99dd0e18a2d5130674a1f8f3931dad32e",
          "transactionIndex": "0x8",
          "logIndex": "0x32",
          "removed": false
        },
        {
          "address": "0x288799697ae9ebcedc1b30bbae6a38e03e41cddb",
          "topics": [
            "0x9641ca9d53af3bead658ffcc6c7d8c35e7dae9938367bd8eb45bee35d5c62504",
            "0x56f68df9a824a92ca2d8b6bb1ae79335a0ccf753d0cc3a0f9064adaf5db1402f"
          ],
          "data": "0x00000000000000000000000000000000000000000000000000005af3107a4000",
          "blockHash": "0x9e155e5def84bf9faa8e14bb00f1de084a25289df26a3621047e74d1e1944ba7",
          "blockNumber": "0x88ebec",
          "transactionHash": "0x3fe6ce7db49f454f121f522766cd02e99dd0e18a2d5130674a1f8f3931dad32e",
          "transactionIndex": "0x8",
          "logIndex": "0x33",
          "removed": false
        },
        {
          "address": "0x1301d3c29a8723fae7ee1343203ea16bd7845996",
          "topics": [
            "0xab3760c3bd2bb38b5bcf54dc79802ed67338b4cf29f3054ded67ed24661e4177",
            "0x3777a69837919f1464b9aa0cfe5122c7942ebd883a5cd738a00258484b67d371",
            "0x00000000000000000000000076709d72e0d80cc26c807134940b59bc36c83543",
            "0x56f68df9a824a92ca2d8b6bb1ae79335a0ccf753d0cc3a0f9064adaf5db1402f"
          ],
          "data": "0x0000000000000000000000000000000000000000000000000000000000000002",
          "blockHash": "0x9e155e5def84bf9faa8e14bb00f1de084a25289df26a3621047e74d1e1944ba7",
          "blockNumber": "0x88ebec",
          "transactionHash": "0x3fe6ce7db49f454f121f522766cd02e99dd0e18a2d5130674a1f8f3931dad32e",
          "transactionIndex": "0x8",
          "logIndex": "0x34",
          "removed": false
        },
        {
          "address": "0xd7869be21bbb2fe897e294935bbe74a5a3222f91",
          "topics": [
            "0x5cf3a4006b0dcb221517555192a3e5df5e19783c22ea769c1ef46dd421ae2d32",
            "0x0000000000000000000000001301d3c29a8723fae7ee1343203ea16bd7845996",
            "0x5e66291f60fa9c0439a7c0b1f8737bc16e7ce7c1953abb8288c1ad864a196360",
            "0x000000000000000000000000ab20745dafe8cbca0ca9da763a9143a1bf07234f"
          ],
          "data": "0x",
          "blockHash": "0x9e155e5def84bf9faa8e14bb00f1de084a25289df26a3621047e74d1e1944ba7",
          "blockNumber": "0x88ebec",
          "transactionHash": "0x3fe6ce7db49f454f121f522766cd02e99dd0e18a2d5130674a1f8f3931dad32e",
          "transactionIndex": "0x8",
          "logIndex": "0x35",
          "removed": false
        },
        {
          "address": "0xd7869be21bbb2fe897e294935bbe74a5a3222f91",
          "topics": [
            "0x5cf3a4006b0dcb221517555192a3e5df5e19783c22ea769c1ef46dd421ae2d32",
            "0x0000000000000000000000001301d3c29a8723fae7ee1343203ea16bd7845996",
            "0xba42762b31897cbec4c6abcd4fcd14c9c2782a8b0aaa97181a534675735f03a4",
            "0x0000000000000000000000009113ce86f5b12bc3af20e0db7b5dfe52f47a6ca5"
          ],
          "data": "0x",
          "blockHash": "0x9e155e5def84bf9faa8e14bb00f1de084a25289df26a3621047e74d1e1944ba7",
          "blockNumber": "0x88ebec",
          "transactionHash": "0x3fe6ce7db49f454f121f522766cd02e99dd0e18a2d5130674a1f8f3931dad32e",
          "transactionIndex": "0x8",
          "logIndex": "0x36",
          "removed": false
        },
        {
          "address": "0x76709d72e0d80cc26c807134940b59bc36c83543",
          "topics": [
            "0x49c8ccb0c6bfef26356642bea151d5dbd402bb0d3632ec51e781b20ac314de6c",
            "0x000000000000000000000000070d726db537627d81045969ff2051adf0c8c3e0",
            "0x0000000000000000000000008d0d54bb87250488c1a5fe0a18332cd1af2b2044"
          ],
          "data": "0x00000000000000000000000000000000000000000000000000000000000000070000000000000000000000000000000000000000000000000000000000000040000000000000000000000000000000000000000000000000000000000000000950726f6a65637420490000000000000000000000000000000000000000000000",
          "blockHash": "0x9e155e5def84bf9faa8e14bb00f1de084a25289df26a3621047e74d1e1944ba7",
          "blockNumber": "0x88ebec",
          "transactionHash": "0x3fe6ce7db49f454f121f522766cd02e99dd0e18a2d5130674a1f8f3931dad32e",
          "transactionIndex": "0x8",
          "logIndex": "0x37",
          "removed": false
        },
        {
          "address": "0x288799697ae9ebcedc1b30bbae6a38e03e41cddb",
          "topics": [
            "0xfe2dac156a3890636ce13f65f4fdf41dcaee11526e4a5374531572d92194796c",
            "0x4691e0430e847b03d0ae74efe4248efd00192d55d1c5b9852125a88e1f416a43",
            "0x000000000000000000000000c4b43616458994aed42d0f31680966fb8a020f36",
            "0x1cc5d64f7554b9822108291672033d886bd10ac83c5bdc13a82eda2605ac89ec"
          ],
          "data": "0x000000000000000000000000000000000000000000000000000000000000000600000000000000000000000000000000000000000000000000000000000000e0000000000000000000000000756c1f6f031fa8ada12c340ea2559c0c4c93439d0000000000000000000000000000000000000000000000000000000000000e1000000000000000000000000000000000000000000000000000000000684f42600000000000000000000000000000000000000000000000000000000000000000000000000000000000000000000000000000000000000000000000006776993800000000000000000000000000000000000000000000000000000000000000415375706572636861696e207472616e73616374696f6e2066656573e2909f50726f6a656374204ae2909f323032352d30322d3135e2909f323032352d30362d313500000000000000000000000000000000000000000000000000000000000000",
          "blockHash": "0x9e155e5def84bf9faa8e14bb00f1de084a25289df26a3621047e74d1e1944ba7",
          "blockNumber": "0x88ebec",
          "transactionHash": "0x3fe6ce7db49f454f121f522766cd02e99dd0e18a2d5130674a1f8f3931dad32e",
          "transactionIndex": "0x8",
          "logIndex": "0x38",
          "removed": false
        },
        {
          "address": "0x288799697ae9ebcedc1b30bbae6a38e03e41cddb",
          "topics": [
            "0x9641ca9d53af3bead658ffcc6c7d8c35e7dae9938367bd8eb45bee35d5c62504",
            "0x4691e0430e847b03d0ae74efe4248efd00192d55d1c5b9852125a88e1f416a43"
          ],
          "data": "0x00000000000000000000000000000000000000000000000000005af3107a4000",
          "blockHash": "0x9e155e5def84bf9faa8e14bb00f1de084a25289df26a3621047e74d1e1944ba7",
          "blockNumber": "0x88ebec",
          "transactionHash": "0x3fe6ce7db49f454f121f522766cd02e99dd0e18a2d5130674a1f8f3931dad32e",
          "transactionIndex": "0x8",
          "logIndex": "0x39",
          "removed": false
        },
        {
          "address": "0x1301d3c29a8723fae7ee1343203ea16bd7845996",
          "topics": [
            "0xab3760c3bd2bb38b5bcf54dc79802ed67338b4cf29f3054ded67ed24661e4177",
            "0x73f3805fc68a4b9e657aa176cd3b81ec877d281ac60a68ad93908c902612f4c7",
            "0x00000000000000000000000076709d72e0d80cc26c807134940b59bc36c83543",
            "0x4691e0430e847b03d0ae74efe4248efd00192d55d1c5b9852125a88e1f416a43"
          ],
          "data": "0x0000000000000000000000000000000000000000000000000000000000000002",
          "blockHash": "0x9e155e5def84bf9faa8e14bb00f1de084a25289df26a3621047e74d1e1944ba7",
          "blockNumber": "0x88ebec",
          "transactionHash": "0x3fe6ce7db49f454f121f522766cd02e99dd0e18a2d5130674a1f8f3931dad32e",
          "transactionIndex": "0x8",
          "logIndex": "0x3a",
          "removed": false
        },
        {
          "address": "0xd7869be21bbb2fe897e294935bbe74a5a3222f91",
          "topics": [
            "0x5cf3a4006b0dcb221517555192a3e5df5e19783c22ea769c1ef46dd421ae2d32",
            "0x0000000000000000000000001301d3c29a8723fae7ee1343203ea16bd7845996",
            "0x2df7e57bd281c5cb63f23adfe52a8d17288d40061df8b807142da806466abab3",
            "0x00000000000000000000000005c92c715714ff39e97245ce79b0ff4869f27781"
          ],
          "data": "0x",
          "blockHash": "0x9e155e5def84bf9faa8e14bb00f1de084a25289df26a3621047e74d1e1944ba7",
          "blockNumber": "0x88ebec",
          "transactionHash": "0x3fe6ce7db49f454f121f522766cd02e99dd0e18a2d5130674a1f8f3931dad32e",
          "transactionIndex": "0x8",
          "logIndex": "0x3b",
          "removed": false
        },
        {
          "address": "0xd7869be21bbb2fe897e294935bbe74a5a3222f91",
          "topics": [
            "0x5cf3a4006b0dcb221517555192a3e5df5e19783c22ea769c1ef46dd421ae2d32",
            "0x0000000000000000000000001301d3c29a8723fae7ee1343203ea16bd7845996",
            "0x0d9aead2a52d206e47406adae08e739365a13bfc011271c8580261eb8aa194ee",
            "0x0000000000000000000000002bd12a2ab59a5b10fb892f37af409cdae7ec24f5"
          ],
          "data": "0x",
          "blockHash": "0x9e155e5def84bf9faa8e14bb00f1de084a25289df26a3621047e74d1e1944ba7",
          "blockNumber": "0x88ebec",
          "transactionHash": "0x3fe6ce7db49f454f121f522766cd02e99dd0e18a2d5130674a1f8f3931dad32e",
          "transactionIndex": "0x8",
          "logIndex": "0x3c",
          "removed": false
        },
        {
          "address": "0x76709d72e0d80cc26c807134940b59bc36c83543",
          "topics": [
            "0x49c8ccb0c6bfef26356642bea151d5dbd402bb0d3632ec51e781b20ac314de6c",
            "0x000000000000000000000000070d726db537627d81045969ff2051adf0c8c3e0",
            "0x0000000000000000000000001de37a95e1c6fef5a0879c42d9f77b7d85f79156"
          ],
          "data": "0x00000000000000000000000000000000000000000000000000000000000000080000000000000000000000000000000000000000000000000000000000000040000000000000000000000000000000000000000000000000000000000000000950726f6a656374204a0000000000000000000000000000000000000000000000",
          "blockHash": "0x9e155e5def84bf9faa8e14bb00f1de084a25289df26a3621047e74d1e1944ba7",
          "blockNumber": "0x88ebec",
          "transactionHash": "0x3fe6ce7db49f454f121f522766cd02e99dd0e18a2d5130674a1f8f3931dad32e",
          "transactionIndex": "0x8",
          "logIndex": "0x3d",
          "removed": false
        }
      ],
      "logsBloom": "0x02100000000100440244400d240490a0034003402008c40000801101801000001412409000000080000801400028804400083080800000840032024800a040000120104024048000800000300000001000904c0002000002500240010008100440e240800801008c8002001022400082020248050005802080022600020100400000061390802a7000020204100005048002101400780001210608200100401000410144000000100010104000c000000452003000100001000050020031a0104000002000280408800411a8000008601010020000000400003000140510013000000002424000026a2000060000400008000000000880000000802000004000",
      "type": "0x2",
      "transactionHash": "0x3fe6ce7db49f454f121f522766cd02e99dd0e18a2d5130674a1f8f3931dad32e",
      "transactionIndex": "0x8",
      "blockHash": "0x9e155e5def84bf9faa8e14bb00f1de084a25289df26a3621047e74d1e1944ba7",
      "blockNumber": "0x88ebec",
      "gasUsed": "0x99de6d",
      "effectiveGasPrice": "0xf4357",
      "from": "0x6fa32dcac55adb31b3a2d87a2af653c46c68b9eb",
      "to": "0x76709d72e0d80cc26c807134940b59bc36c83543",
      "contractAddress": null,
      "l1BaseFeeScalar": "0x7d0",
      "l1BlobBaseFee": "0x585a0",
      "l1BlobBaseFeeScalar": "0xdbba0",
      "l1Fee": "0x266c5ecc48",
      "l1GasPrice": "0x3407b4987",
      "l1GasUsed": "0x170f"
    }
  ],
  "libraries": [],
  "pending": [],
  "returns": {},
  "timestamp": 1735825721,
  "chain": 1301,
  "commit": "6a5ac91"
}