{
  "transactions": [
    {
      "hash": "0x0c763e47efe535c1d35e511ea2743e0b3d17386db7cddf07dab458ee0f9bab1f",
      "transactionType": "CALL",
      "contractName": null,
      "contractAddress": "0x288799697ae9ebcedc1b30bbae6a38e03e41cddb",
      "function": "createTemplate(string)",
      "arguments": [
        "{\\\"title\\\": \\\"What is the aggregate of metric %s from %s to %s for CFM project %s?\\\", \\\"type\\\": \\\"uint\\\", \\\"category\\\": \\\"cfm-metric\\\", \\\"lang\\\": \\\"en\\\"}"
      ],
      "transaction": {
        "from": "0x6fa32dcac55adb31b3a2d87a2af653c46c68b9eb",
        "to": "0x288799697ae9ebcedc1b30bbae6a38e03e41cddb",
        "gas": "0x1a757",
        "value": "0x0",
        "input": "0x83bf4609000000000000000000000000000000000000000000000000000000000000002000000000000000000000000000000000000000000000000000000000000000897b227469746c65223a2022576861742069732074686520616767726567617465206f66206d65747269632025732066726f6d20257320746f20257320666f722043464d2070726f6a6563742025733f222c202274797065223a202275696e74222c202263617465676f7279223a202263666d2d6d6574726963222c20226c616e67223a2022656e227d0000000000000000000000000000000000000000000000",
        "nonce": "0x14",
        "chainId": "0x515"
      },
      "additionalContracts": [],
      "isFixedGasLimit": false
    }
  ],
  "receipts": [
    {
      "status": "0x1",
      "cumulativeGasUsed": "0x1a6267",
      "logs": [
        {
          "address": "0x288799697ae9ebcedc1b30bbae6a38e03e41cddb",
          "topics": [
            "0xb87fb721c0a557bb8dff89a86796466931d82ba530a66a239263eb8735ade2e4",
            "0x0000000000000000000000000000000000000000000000000000000000000006",
            "0x0000000000000000000000006fa32dcac55adb31b3a2d87a2af653c46c68b9eb"
          ],
          "data": "0x000000000000000000000000000000000000000000000000000000000000002000000000000000000000000000000000000000000000000000000000000000897b227469746c65223a2022576861742069732074686520616767726567617465206f66206d65747269632025732066726f6d20257320746f20257320666f722043464d2070726f6a6563742025733f222c202274797065223a202275696e74222c202263617465676f7279223a202263666d2d6d6574726963222c20226c616e67223a2022656e227d0000000000000000000000000000000000000000000000",
          "blockHash": "0x65d8d41a704f0bef9e1eb8745debc40f1e4245b6e4a627c79ebf280513f0a8c1",
          "blockNumber": "0x88c396",
          "transactionHash": "0x0c763e47efe535c1d35e511ea2743e0b3d17386db7cddf07dab458ee0f9bab1f",
          "transactionIndex": "0xb",
          "logIndex": "0x2b",
          "removed": false
        }
      ],
      "logsBloom": "0x00000000000000000000000000000000000000000000000000000000000000000020000000000000000000000000000000000000000400000000000000000000000000000000000000000000000000000000000000000000000000000000000000000000000000000000000000000000000204000000000000000000000000000000000400000000000000000000000000100000000000040000000000000000000000000000000000000000000000000000000000000000000010080000000000000000000000000000100000000000000000000000000000000000000000000000000000000000002000000002000000000000000000000000000000000000",
      "type": "0x2",
      "transactionHash": "0x0c763e47efe535c1d35e511ea2743e0b3d17386db7cddf07dab458ee0f9bab1f",
      "transactionIndex": "0xb",
      "blockHash": "0x65d8d41a704f0bef9e1eb8745debc40f1e4245b6e4a627c79ebf280513f0a8c1",
      "blockNumber": "0x88c396",
      "gasUsed": "0x1327f",
      "effectiveGasPrice": "0xf435f",
      "from": "0x6fa32dcac55adb31b3a2d87a2af653c46c68b9eb",
      "to": "0x288799697ae9ebcedc1b30bbae6a38e03e41cddb",
      "contractAddress": null,
      "l1BaseFeeScalar": "0x7d0",
      "l1BlobBaseFee": "0x46dc18",
      "l1BlobBaseFeeScalar": "0xdbba0",
      "l1Fee": "0x41cbfa447c",
      "l1GasPrice": "0xb81385160",
      "l1GasUsed": "0xb24"
    }
  ],
  "libraries": [],
  "pending": [],
  "returns": {},
  "timestamp": 1735815395,
  "chain": 1301,
  "commit": "adfa27b"
}