{
  "transactions": [
    {
      "hash": "0x0b30c3eb0645cff4bb24e4f5d593deadc02e72ff3ac077f6b68055625596f1d4",
      "transactionType": "CALL",
      "contractName": null,
      "contractAddress": "0x288799697ae9ebcedc1b30bbae6a38e03e41cddb",
      "function": "createTemplate(string)",
      "arguments": [
        "{\\\"title\\\": \\\"Which project got funded during CFM round %s?\\\", \\\"type\\\": \\\"multiple-select\\\", \\\"outcomes\\\": [%s], \\\"category\\\": \\\"cfm-decision\\\", \\\"lang\\\": \\\"en\\\"}"
      ],
      "transaction": {
        "from": "0x6fa32dcac55adb31b3a2d87a2af653c46c68b9eb",
        "to": "0x288799697ae9ebcedc1b30bbae6a38e03e41cddb",
        "gas": "0x1c0d0",
        "value": "0x0",
        "input": "0x83bf4609000000000000000000000000000000000000000000000000000000000000002000000000000000000000000000000000000000000000000000000000000000917b227469746c65223a202257686963682070726f6a65637420676f742066756e64656420647572696e672043464d20726f756e642025733f222c202274797065223a20226d756c7469706c652d73656c656374222c20226f7574636f6d6573223a205b25735d2c202263617465676f7279223a202263666d2d6465636973696f6e222c20226c616e67223a2022656e227d000000000000000000000000000000",
        "nonce": "0x13",
        "chainId": "0x515"
      },
      "additionalContracts": [],
      "isFixedGasLimit": false
    }
  ],
  "receipts": [
    {
      "status": "0x1",
      "cumulativeGasUsed": "0x6a2f4c",
      "logs": [
        {
          "address": "0x288799697ae9ebcedc1b30bbae6a38e03e41cddb",
          "topics": [
            "0xb87fb721c0a557bb8dff89a86796466931d82ba530a66a239263eb8735ade2e4",
            "0x0000000000000000000000000000000000000000000000000000000000000005",
            "0x0000000000000000000000006fa32dcac55adb31b3a2d87a2af653c46c68b9eb"
          ],
          "data": "0x000000000000000000000000000000000000000000000000000000000000002000000000000000000000000000000000000000000000000000000000000000917b227469746c65223a202257686963682070726f6a65637420676f742066756e64656420647572696e672043464d20726f756e642025733f222c202274797065223a20226d756c7469706c652d73656c656374222c20226f7574636f6d6573223a205b25735d2c202263617465676f7279223a202263666d2d6465636973696f6e222c20226c616e67223a2022656e227d000000000000000000000000000000",
          "blockHash": "0x7efcac26d3687bf8eadb4e8cbe254bbb1b9607466909ebdd13b3fb1fba5cd1d2",
          "blockNumber": "0x88c330",
          "transactionHash": "0x0b30c3eb0645cff4bb24e4f5d593deadc02e72ff3ac077f6b68055625596f1d4",
          "transactionIndex": "0x7",
          "logIndex": "0x16",
          "removed": false
        }
      ],
      "logsBloom": "0x00000000000000000000000000000000000000000000000000000000000000000020000000000000000000000000000000000000000000000000000000000000000010000000000000000000000000000000000000000000000000000000000000000000000000000000000000000000000204000000000000000000000000000000000000000000000000000000001000100800000000040000000000000000000000000000000000000000000000000000000000000000000010000000000000000000000000000000100000000000000000000000000000000000000000000000000000000000002000000002000000000000000000000000000000000000",
      "type": "0x2",
      "transactionHash": "0x0b30c3eb0645cff4bb24e4f5d593deadc02e72ff3ac077f6b68055625596f1d4",
      "transactionIndex": "0x7",
      "blockHash": "0x7efcac26d3687bf8eadb4e8cbe254bbb1b9607466909ebdd13b3fb1fba5cd1d2",
      "blockNumber": "0x88c330",
      "gasUsed": "0x132e2",
      "effectiveGasPrice": "0x1006bf",
      "from": "0x6fa32dcac55adb31b3a2d87a2af653c46c68b9eb",
      "to": "0x288799697ae9ebcedc1b30bbae6a38e03e41cddb",
      "contractAddress": null,
      "l1BaseFeeScalar": "0x7d0",
      "l1BlobBaseFee": "0x49b275",
      "l1BlobBaseFeeScalar": "0xdbba0",
      "l1Fee": "0x45260756a7",
      "l1GasPrice": "0xb58034c7b",
      "l1GasUsed": "0xbdf"
    }
  ],
  "libraries": [],
  "pending": [],
  "returns": {},
  "timestamp": 1735815295,
  "chain": 1301,
  "commit": "adfa27b"
}